{
  "_format": "hh-sol-artifact-1",
  "contractName": "GameFactory",
  "sourceName": "contracts/GameFactory.sol",
  "abi": [
    {
      "inputs": [
        {
          "internalType": "address",
          "name": "_player1",
          "type": "address"
        }
      ],
      "name": "createGameInstance",
      "outputs": [],
      "stateMutability": "nonpayable",
      "type": "function"
    },
    {
      "inputs": [],
      "name": "getActive",
      "outputs": [
        {
          "internalType": "address[]",
          "name": "",
          "type": "address[]"
        }
      ],
      "stateMutability": "view",
      "type": "function"
    }
  ],
  "bytecode": "0x608060405234801561001057600080fd5b50612a73806100206000396000f3fe608060405234801561001057600080fd5b50600436106100355760003560e01c80629ebb101461003a5780638719ce8814610058575b600080fd5b61004261006d565b60405161004f919061038b565b60405180910390f35b61006b61006636600461033d565b6102a3565b005b60606000805b60005481101561013d57600080828154811061009f57634e487b7160e01b600052603260045260246000fd5b60009182526020918290200154604080516308bcf8b560e21b815290516001600160a01b03909216935083926322f3e2d492600480840193829003018186803b1580156100eb57600080fd5b505afa1580156100ff573d6000803e3d6000fd5b505050506040513d601f19601f82011682018060405250810190610123919061036b565b1561013457610131836103d8565b92505b50600101610073565b5060008167ffffffffffffffff81111561016757634e487b7160e01b600052604160045260246000fd5b604051908082528060200260200182016040528015610190578160200160208202803683370190505b5090506000805b60005481101561029a5760008082815481106101c357634e487b7160e01b600052603260045260246000fd5b60009182526020918290200154604080516308bcf8b560e21b815290516001600160a01b03909216935083926322f3e2d492600480840193829003018186803b15801561020f57600080fd5b505afa158015610223573d6000803e3d6000fd5b505050506040513d601f19601f82011682018060405250810190610247919061036b565b15610291578084848151811061026d57634e487b7160e01b600052603260045260246000fd5b6001600160a01b039092166020928302919091019091015261028e836103d8565b92505b50600101610197565b50909392505050565b6000816040516102b290610330565b6001600160a01b039091168152602001604051809103906000f0801580156102de573d6000803e3d6000fd5b50600080546001810182559080527f290decd9548b62a8d60345a988386fc84ba6bc95484008f6362f93160ef3e5630180546001600160a01b0319166001600160a01b03929092169190911790555050565b61263e8061040083390190565b60006020828403121561034e578081fd5b81356001600160a01b0381168114610364578182fd5b9392505050565b60006020828403121561037c578081fd5b81518015158114610364578182fd5b6020808252825182820181905260009190848201906040850190845b818110156103cc5783516001600160a01b0316835292840192918401916001016103a7565b50909695505050505050565b60006000198214156103f857634e487b7160e01b81526011600452602481fd5b506001019056fe60806040523480156200001157600080fd5b506040516200263e3803806200263e833981016040819052620000349162000424565b604080516102808101825260016101408083018281526101608401839052610180840183905260006101a085018190526101c085018190526101e08501819052610200850181905260036102208601819052610240860181905261026086018590529185528551808401875284815260208082018390528188018490526060808301849052608080840186905260a080850186905260c080860187905260e08087018890526101008088018990526101208089018b9052878e01989098528d51808c018f528981528088018a9052808f018a90528087018a90528086018a90528085018a90528084018a90528083018a90528082018a90528089018a90528d8f01528d51808c018f528c81528088018d9052808f018d90528087018a90528086018a90528085018a90528084018d90528083018d90528082018d90528089018d9052868e01528d51808c018f528c81528088018a9052808f018a90528087018a90528086018a90528085018a90528084018d90528083018a90528082018a90528089018d9052858e01528d51808c018f528a81528088018a9052808f018a90528087018d90528086018a90528085018a90528084018a90528083018a90528082018a90528089018d9052848e01528d51808c018f528c81528088018d9052808f018d90528087018d90528086018a90528085018a90528084018a90528083018d90528082018d90528089018d9052838e01528d51808c018f528981528088018a9052808f018a90528087018a90528086018a90528085018a90528084018a90528083018a90528082018a90528089018a9052828e01528d51808c018f528981528088018a9052808f018a90528087018a90528086018a90528085018a90528084018a90528083018a90528082018a90528089018a9052818e01528d519a8b018e528b8b52958a018990529b89018a90529288018990529087018890528601879052850183905296840182905295830193909352818501529282019290925281546001600160a01b0319166001600160a01b038416178255905b600a8160ff1610156200040d5760005b600a8160ff1610156200040357828260ff16600a81106200036e57634e487b7160e01b600052603260045260246000fd5b60200201518160ff16600a81106200039657634e487b7160e01b600052603260045260246000fd5b602002015160058360ff16600a8110620003c057634e487b7160e01b600052603260045260246000fd5b600a02018260ff16600a8110620003e757634e487b7160e01b600052603260045260246000fd5b01805460ff191660ff929092169190911790556001016200033d565b506001016200032d565b50506069805461ffff191660011790555062000454565b60006020828403121562000436578081fd5b81516001600160a01b03811681146200044d578182fd5b9392505050565b6121da80620004646000396000f3fe608060405234801561001057600080fd5b50600436106101165760003560e01c806386a04f79116100a2578063c040e6b811610071578063c040e6b814610244578063cde1adf114610263578063cf8aa2431461026b578063d30895e41461027e578063f9e5386d1461029157600080fd5b806386a04f791461015f5780639d7c1ec7146101e8578063a90b9128146101fb578063ad3de14c1461022f57600080fd5b80632f0bca26116100e95780632f0bca26146101725780634968a7611461018c57806359a5f12d1461019f5780635b741fbf146101ca57806363c6a631146101d557600080fd5b806312e804cf1461011b57806322f3e2d414610130578063253c21361461014c57806329904e061461015f575b600080fd5b61012e610129366004611e2f565b6102a4565b005b60695460ff165b60405190151581526020015b60405180910390f35b61012e61015a366004611cd7565b6106c5565b61013761016d366004611cd7565b610a87565b61017a610b16565b60405160ff9091168152602001610143565b61012e61019a366004611d35565b610b48565b6001546101b2906001600160a01b031681565b6040516001600160a01b039091168152602001610143565b60045460ff1661017a565b61012e6101e3366004611cd7565b610e76565b61012e6101f6366004611ebb565b610fb3565b61020e610209366004611e0e565b611865565b6040805160ff90931683526001600160a01b03909116602083015201610143565b6102376118a2565b6040516101439190611f54565b60695461025690610100900460ff1681565b60405161014391906120bc565b61012e61193c565b610137610279366004611c6d565b611a52565b6000546101b2906001600160a01b031681565b61013761029f366004611d35565b611a87565b6001606954610100900460ff16600b8111156102d057634e487b7160e01b600052602160045260246000fd5b1415610344576000546001600160a01b0316331461033f5760405162461bcd60e51b815260206004820152602160248201527f6f6e6c7920706c61796572312063616e207365742068697320706f736974696f6044820152603760f91b60648201526084015b60405180910390fd5b610410565b6002606954610100900460ff16600b81111561037057634e487b7160e01b600052602160045260246000fd5b14156103da576001546001600160a01b0316331461033f5760405162461bcd60e51b815260206004820152602160248201527f6f6e6c7920706c61796572322063616e207365742068697320706f736974696f6044820152603760f91b6064820152608401610336565b60405162461bcd60e51b815260206004820152600b60248201526a77726f6e6720737461676560a81b6044820152606401610336565b60058760ff16600a811061043457634e487b7160e01b600052603260045260246000fd5b600a02018660ff16600a811061045a57634e487b7160e01b600052603260045260246000fd5b015460ff166003146104a75760405162461bcd60e51b81526020600482015260166024820152753334b2b6321034b9903737ba10309039ba30ba34b7b760511b6044820152606401610336565b6000600560ff8916600a81106104cd57634e487b7160e01b600052603260045260246000fd5b600a02018760ff16600a81106104f357634e487b7160e01b600052603260045260246000fd5b015461010090046001600160a01b0316146105485760405162461bcd60e51b815260206004820152601560248201527439ba30ba34b7b71030b63932b0b23c903a30b5b2b760591b6044820152606401610336565b600260058860ff16600a811061056e57634e487b7160e01b600052603260045260246000fd5b600a02018760ff16600a811061059457634e487b7160e01b600052603260045260246000fd5b01805460ff191660ff92831617905533906005908916600a81106105c857634e487b7160e01b600052603260045260246000fd5b600a02018760ff16600a81106105ee57634e487b7160e01b600052603260045260246000fd5b0180546001600160a01b039290921661010002610100600160a81b03199092169190911790556106218585858585611a52565b61062a57600080fd5b6001606954610100900460ff16600b81111561065657634e487b7160e01b600052602160045260246000fd5b14156106755780516002556069805461ff0019166102001790556106bc565b6002606954610100900460ff16600b8111156106a157634e487b7160e01b600052602160045260246000fd5b14156106bc5780516003556069805461ff0019166103001790555b50505050505050565b6009606954610100900460ff16600b8111156106f157634e487b7160e01b600052602160045260246000fd5b14806107265750600a606954610100900460ff16600b81111561072457634e487b7160e01b600052602160045260246000fd5b145b6107605760405162461bcd60e51b815260206004820152600b60248201526a77726f6e6720737461676560a81b6044820152606401610336565b602081015160045460ff161461077557600080fd5b6009606954610100900460ff16600b8111156107a157634e487b7160e01b600052602160045260246000fd5b14156107ff576000546001600160a01b031633146107fa5760405162461bcd60e51b815260206004820152601660248201527573686f756c64277665206265656e20706c617965723160501b6044820152606401610336565b610852565b6001546001600160a01b031633146108525760405162461bcd60e51b815260206004820152601660248201527539b437bab63213bb32903132b2b710383630bcb2b91960511b6044820152606401610336565b60045460ff1615610958576004546002906005906301000000900460ff16600a811061088e57634e487b7160e01b600052603260045260246000fd5b600a020160048054906101000a900460ff1660ff16600a81106108c157634e487b7160e01b600052603260045260246000fd5b01805460ff191660ff92831617905560045433916005916301000000900416600a81106108fe57634e487b7160e01b600052603260045260246000fd5b600a020160048054906101000a900460ff1660ff16600a811061093157634e487b7160e01b600052603260045260246000fd5b0180546001600160a01b039290921661010002610100600160a81b03199092169190911790555b600454600090600590610100900460ff16600a811061098757634e487b7160e01b600052603260045260246000fd5b600a0201600460029054906101000a900460ff1660ff16600a81106109bc57634e487b7160e01b600052603260045260246000fd5b01805460ff191660ff928316179055600454600091600591610100900416600a81106109f857634e487b7160e01b600052603260045260246000fd5b600a0201600460029054906101000a900460ff1660ff16600a8110610a2d57634e487b7160e01b600052603260045260246000fd5b0180546001600160a01b039290921661010002610100600160a81b0319909216919091179055610a608585858585610a87565b610a6957600080fd5b60698054600b919061ff001916610100835b02179055505050505050565b604051637ae4eb4f60e11b81526000906001600160a01b0387169063f5c9d69e90610abc90889088908890889060040161202b565b60206040518083038186803b158015610ad457600080fd5b505afa158015610ae8573d6000803e3d6000fd5b505050506040513d601f19601f82011682018060405250810190610b0c9190611de7565b9695505050505050565b606954600090610100900460ff16600b811115610b4357634e487b7160e01b600052602160045260246000fd5b905090565b6007606954610100900460ff16600b811115610b7457634e487b7160e01b600052602160045260246000fd5b1480610ba957506008606954610100900460ff16600b811115610ba757634e487b7160e01b600052602160045260246000fd5b145b610bb257600080fd5b6007606954610100900460ff16600b811115610bde57634e487b7160e01b600052602160045260246000fd5b1415610c0f576000546001600160a01b03163314610bfb57600080fd5b6069805461ff001916610a00179055610c36565b6001546001600160a01b03163314610c2657600080fd5b6069805461ff0019166109001790555b600454608082015160ff908116911614610cb85760405162461bcd60e51b815260206004820152603860248201527f61747461636b20656e657267696573206f6e20636861696e20616e6420696e2060448201527f63616c6c6261636b2073686f756c6420626520657175616c00000000000000006064820152608401610336565b602081015160025414610cfa5760405162461bcd60e51b815260206004820152600a6024820152696861736820636865636b60b01b6044820152606401610336565b80516004805460ff191660ff9092169190911790556040810151600255606081015160011415610e20576004546000906005906301000000900460ff16600a8110610d5557634e487b7160e01b600052603260045260246000fd5b600a020160048054906101000a900460ff1660ff16600a8110610d8857634e487b7160e01b600052603260045260246000fd5b01805460ff191660ff9283161790556004546000916005916301000000900416600a8110610dc657634e487b7160e01b600052603260045260246000fd5b600a020160048054906101000a900460ff1660ff16600a8110610df957634e487b7160e01b600052603260045260246000fd5b0180546001600160a01b039290921661010002610100600160a81b03199092169190911790555b610e2d8585858585611a87565b610e6f5760405162461bcd60e51b8152602060048201526013602482015272191959995b99081c1c9bdbd98819985a5b1959606a1b6044820152606401610336565b5050505050565b6005606954610100900460ff16600b811115610ea257634e487b7160e01b600052602160045260246000fd5b1480610ed757506006606954610100900460ff16600b811115610ed557634e487b7160e01b600052602160045260246000fd5b145b610ee057600080fd5b6005606954610100900460ff16600b811115610f0c57634e487b7160e01b600052602160045260246000fd5b1415610f4c576000546001600160a01b03163314610f2957600080fd5b805160025414610f3857600080fd5b6069805461ff001916610800179055610f82565b6001546001600160a01b03163314610f6357600080fd5b805160035414610f7257600080fd5b6069805461ff0019166107001790555b80600160200201516004805460ff191660ff909216919091179055610faa8585858585610a87565b610e6f57600080fd5b60098260ff1611158015610fc5575060015b8015610fd5575060098360ff1611155b6110215760405162461bcd60e51b815260206004820152601e60248201527f636f6f7264696e61746573206f757473696465206d617020626f756e647300006044820152606401610336565b60058360ff16600a811061104557634e487b7160e01b600052603260045260246000fd5b600a02018260ff16600a811061106b57634e487b7160e01b600052603260045260246000fd5b015460ff166002146110b55760405162461bcd60e51b81526020600482015260136024820152723334b2b6321034b9903737ba1030b71037b93160691b6044820152606401610336565b6003606954610100900460ff16600b8111156110e157634e487b7160e01b600052602160045260246000fd5b14156111e8576000546001600160a01b031633146111305760405162461bcd60e51b815260206004820152600c60248201526b383630bcb2b918903a3ab93760a11b6044820152606401610336565b6000546001600160a01b0316600560ff8516600a811061116057634e487b7160e01b600052603260045260246000fd5b600a02018360ff16600a811061118657634e487b7160e01b600052603260045260246000fd5b015461010090046001600160a01b0316146111e35760405162461bcd60e51b815260206004820152601a60248201527f796f752063616e2774206d6f766520706c6179657231206f72620000000000006044820152606401610336565b611316565b6004606954610100900460ff16600b81111561121457634e487b7160e01b600052602160045260246000fd5b1415611316576001546001600160a01b031633146112635760405162461bcd60e51b815260206004820152600c60248201526b383630bcb2b919103a3ab93760a11b6044820152606401610336565b6001546001600160a01b0316600560ff8516600a811061129357634e487b7160e01b600052603260045260246000fd5b600a02018360ff16600a81106112b957634e487b7160e01b600052603260045260246000fd5b015461010090046001600160a01b0316146113165760405162461bcd60e51b815260206004820152601a60248201527f796f752063616e2774206d6f766520706c6179657232206f72620000000000006044820152606401610336565b828260ff83166113325761132b600186612155565b9150611381565b8260ff166001141561135057611349846001612130565b9050611381565b8260ff16600214156113675761132b856001612130565b8260ff16600314156113815761137e600185612155565b90505b60098160ff1611158015611393575060015b80156113a3575060098260ff1611155b6113e85760405162461bcd60e51b8152602060048201526016602482015275063616e2774206d6f7665206f757473696465206d61760541b6044820152606401610336565b60058260ff16600a811061140c57634e487b7160e01b600052603260045260246000fd5b600a02018160ff16600a811061143257634e487b7160e01b600052603260045260246000fd5b015460ff166002141561151f576003606954610100900460ff16600b81111561146b57634e487b7160e01b600052602160045260246000fd5b1415611485576069805461ff0019166105001790556114c7565b6004606954610100900460ff16600b8111156114b157634e487b7160e01b600052602160045260246000fd5b14156114c7576069805461ff0019166106001790555b6004805462ffff00191661010060ff8881169190910262ff000019169190911762010000878316021764ffff000000191663010000008583160264ff0000000019161764010000000091841691909102179055610e6f565b60058260ff16600a811061154357634e487b7160e01b600052603260045260246000fd5b600a02018160ff16600a811061156957634e487b7160e01b600052603260045260246000fd5b015460ff16156115bb5760405162461bcd60e51b815260206004820152601d60248201527f63616e2774206d6f766520746f206e6f6e20656d707479206669656c640000006044820152606401610336565b600060058660ff16600a81106115e157634e487b7160e01b600052603260045260246000fd5b600a02018560ff16600a811061160757634e487b7160e01b600052603260045260246000fd5b01805460ff191660ff9283161790556000906005908716600a811061163c57634e487b7160e01b600052603260045260246000fd5b600a02018560ff16600a811061166257634e487b7160e01b600052603260045260246000fd5b0180546001600160a01b039290921661010002610100600160a81b03199092169190911790556002600560ff8416600a81106116ae57634e487b7160e01b600052603260045260246000fd5b600a02018260ff16600a81106116d457634e487b7160e01b600052603260045260246000fd5b01805460ff191660ff92831617905560695460039161010090910416600b81111561170f57634e487b7160e01b600052602160045260246000fd5b14156117a6576000546001600160a01b0316600560ff8416600a811061174557634e487b7160e01b600052603260045260246000fd5b600a02018260ff16600a811061176b57634e487b7160e01b600052603260045260246000fd5b018054610100600160a81b0319166101006001600160a01b0393909316929092029190911790556069805461ff001916610400179055610e6f565b6004606954610100900460ff16600b8111156117d257634e487b7160e01b600052602160045260246000fd5b1415610e6f576001546001600160a01b0316600560ff8416600a811061180857634e487b7160e01b600052603260045260246000fd5b600a02018260ff16600a811061182e57634e487b7160e01b600052603260045260246000fd5b018054610100600160a81b0319166101006001600160a01b039390931683021790556069805460039261ff00199091169083610a7b565b600582600a811061187557600080fd5b600a020181600a811061188757600080fd5b015460ff8116925061010090046001600160a01b0316905082565b6118aa611abc565b6040805161014081019091526005600a6000835b8282101561193357604080516101408101909152600a8084028601906000835b8282101561192057604080518082019091528483015460ff8116825261010090046001600160a01b0316602080830191909152908252600190920191016118de565b50505050815260200190600101906118be565b50505050905090565b600080606954610100900460ff16600b81111561196957634e487b7160e01b600052602160045260246000fd5b146119b65760405162461bcd60e51b815260206004820181905260248201527f57726f6e672073746167652e20416374696f6e206e6f7420616c6c6f7765642e6044820152606401610336565b6000546001600160a01b0316331415611a2c5760405162461bcd60e51b815260206004820152603260248201527f706c6179657232206d7573742068617665206120646966666572656e742061646044820152716472657373207468616e20706c617965723160701b6064820152608401610336565b5060018054336001600160a01b03199091161790556069805461ffff1916610100179055565b6040516343753b4d60e01b81526000906001600160a01b038716906343753b4d90610abc908890889088908890600401611fce565b6040516334baeab960e01b81526000906001600160a01b038716906334baeab990610abc90889088908890889060040161206b565b604051806101400160405280600a905b611ad4611aea565b815260200190600190039081611acc5790505090565b604051806101400160405280600a905b6040805180820190915260008082526020820152815260200190600190039081611afa5790505090565b80356001600160a01b0381168114611b3b57600080fd5b919050565b600082601f830112611b50578081fd5b611b586120e4565b808385608086011115611b69578384fd5b835b6002811015611b9557611b7e8783611c12565b845260209093019260409190910190600101611b6b565b509095945050505050565b600082601f830112611bb0578081fd5b604051602080820182811067ffffffffffffffff82111715611bd457611bd461218e565b6040528184828101871015611be7578485fd5b845b6001811015611c0657813583529183019190830190600101611be9565b50929695505050505050565b600082601f830112611c22578081fd5b611c2a6120e4565b808385604086011115611c3b578384fd5b835b6002811015611b95578135845260209384019390910190600101611c3d565b803560ff81168114611b3b57600080fd5b60008060008060006101408688031215611c85578081fd5b611c8e86611b24565b9450611c9d8760208801611c12565b9350611cac8760608801611b40565b9250611cbb8760e08801611c12565b9150611ccb876101208801611ba0565b90509295509295909350565b60008060008060006101608688031215611cef578081fd5b611cf886611b24565b9450611d078760208801611c12565b9350611d168760608801611b40565b9250611d258760e08801611c12565b9150611ccb876101208801611c12565b60008060008060006101c0808789031215611d4e578182fd5b611d5787611b24565b95506020611d6789828a01611c12565b9550611d768960608a01611b40565b9450611d858960e08a01611c12565b93508861013f890112611d96578283fd5b611d9e61210d565b806101208a018b858c011115611db2578586fd5b8594505b6005851015611dd5578035835260019490940193918301918301611db6565b50809450505050509295509295909350565b600060208284031215611df8578081fd5b81518015158114611e07578182fd5b9392505050565b60008060408385031215611e20578182fd5b50508035926020909101359150565b6000806000806000806000610180888a031215611e4a578182fd5b611e5388611c5c565b9650611e6160208901611c5c565b9550611e6f60408901611b24565b9450611e7e8960608a01611c12565b9350611e8d8960a08a01611b40565b9250611e9d896101208a01611c12565b9150611ead896101608a01611ba0565b905092959891949750929550565b600080600060608486031215611ecf578081fd5b611ed884611c5c565b9250611ee660208501611c5c565b9150611ef460408501611c5c565b90509250925092565b8060005b6002811015611f2b57611f15848351611f31565b6040939093019260209190910190600101611f01565b50505050565b8060005b6002811015611f2b578151845260209384019390910190600101611f35565b611900810181836000805b600a808210611f6e5750611fc4565b835185845b83811015611fa9578251805160ff1683526020908101516001600160a01b03168184015290920191604090910190600101611f73565b50505061028094909401935060209290920191600101611f5f565b5050505092915050565b6101208101611fdd8287611f31565b611fea6040830186611efd565b611ff760c0830185611f31565b61010082018360005b600181101561201f578151835260209283019290910190600101612000565b50505095945050505050565b610140810161203a8287611f31565b6120476040830186611efd565b61205460c0830185611f31565b612062610100830184611f31565b95945050505050565b6101a0810161207a8287611f31565b6120876040830186611efd565b61209460c0830185611f31565b61010082018360005b600581101561201f57815183526020928301929091019060010161209d565b60208101600c83106120de57634e487b7160e01b600052602160045260246000fd5b91905290565b6040805190810167ffffffffffffffff811182821017156121075761210761218e565b60405290565b60405160a0810167ffffffffffffffff811182821017156121075761210761218e565b600060ff821660ff84168060ff0382111561214d5761214d612178565b019392505050565b600060ff821660ff84168082101561216f5761216f612178565b90039392505050565b634e487b7160e01b600052601160045260246000fd5b634e487b7160e01b600052604160045260246000fdfea26469706673582212209709f6069ee7c12cef7c53ee1f6a241900518b203480dd0d4ad23e247d334df464736f6c63430008040033a2646970667358221220dd94c75e7cf48bc52862061e89987dce468e3c5f6d967e03b872f1cdf413ea6364736f6c63430008040033",
  "linkReferences": {},
  "deployedLinkReferences": {}
}